:100000000C9434000C9451000C9451000C94510049
:100010000C9451000C9451000C9451000C9451001C
:100020000C9451000C9451000C9451000C9451000C
:100030000C9451000C9451000C9451000C945100FC
:100040000C9451000C9451000C9451000C945100EC
:100050000C9451000C9451000C9451000C945100DC
:100060000C9451000C94510011241FBECFEFD8E026
:10007000DEBFCDBF11E0A0E0B1E0E2E5FBE202C0EF
:1000800005900D92A834B107D9F723E0A8E4B1E0B8
:1000900001C01D92AA34B207E1F70E944D100C94E2
:1000A000A7150C9400005B9A85E08A95F1F7000093
:1000B0005B980895599884FF02C05C9A01C05C98CF
:1000C00085FF02C05D9A01C05D9886FF02C05E9AFE
:1000D00001C05E9887FF02C05F9A01C05F980C94D0
:1000E0005300CF93C82F84FF02C05C9A01C05C9874
:1000F000C5FF02C05D9A01C05D98C6FF02C05E9A4E
:1001000001C05E98C7FF02C05F9A01C05F980E945D
:100110005300C0FF02C05C9A01C05C98C1FF02C0DE
:100120005D9A01C05D98C2FF02C05E9A01C05E98F0
:10013000C3FF02C05F9A01C05F98CF910C94530037
:100140000F931F93CF93DF93FB016685662331F1F5
:10015000608571856417750709F5428553854217D7
:100160005307E1F4EF018C01BC01665E7F4F44E070
:1001700050E0CF010F960E947712892B79F4B801D5
:100180006A5F7F4F46E050E0CE0143960E947712AF
:1001900021E0892B09F020E0822F01C080E0DF916F
:1001A000CF911F910F910895CF93DF93EC011E869D
:1001B00081E08F8788E0888B198A86E08A8B84E0CB
:1001C0008B8BDE01909686E0FB0101900D928A9563
:1001D000E1F786E0ECE0F1E0DE01569601900D9249
:1001E0008A95E1F7DE01969684E0FA0101900D927E
:1001F0008A95E1F78091080190910901A0910A0187
:10020000B0910B018C8F9D8FAE8FBF8FDF91CF91FF
:100210000895FC0126A522952F70220F220F30E0B1
:100220002E5D3F4F46E350E04217530790F4DF0145
:10023000A40FB51F9C91992361F0923069F0913021
:1002400019F44F5F5F4FF0CF11968C91480F511DFD
:10025000EBCF80E090E00895CA010895CF935498C1
:1002600055985698579859985A9A5B9A85E08A9566
:10027000F1F70000C9B15B980E945300C7FDF5CFAC
:10028000549A559A569A579A5A98CF910895CF935F
:10029000C82F0E942E0159988C2FCF910C94710079
:1002A000549A559A569A579A519A529A539A5C98D8
:1002B0005D985E985F9859985A985B982FEF89EFF0
:1002C00090E0215080409040E1F700C0000080E3C2
:1002D0000E945A008FE39CE90197F1F700C00000EB
:1002E00080E30E945A008FE99FE00197F1F700C078
:1002F000000080E30E945A008FE99FE00197F1F728
:1003000000C0000080E20E945A0088E20E9447017B
:100310008CE00E94470186E00E94470181E00C9436
:100320004701CF93C82F0E942E01599A8C2FCF914D
:100330000C94710081E00C944701803158F46230D4
:1003400048F4613011F490E401C090E08068892B9A
:100350000C9447010895CF93682F80E00E949D017F
:10036000C1E180E20E949101C150D9F7CF91089577
:100370000E942E01549855985698579859985A9A11
:100380005B9A85E08A95F1F7000089B139B129B10E
:100390005B985B9A95E09A95F1F7000099B1482F28
:1003A0004071832F8072842B2074822B92959170E0
:1003B000892B4D9902C090E001C092E0892B4E99A3
:1003C00002C090E001C094E0892B99B1991F992750
:1003D000991F990F990F990F892B5B98549A559AE9
:1003E000569A579A5A9880341CF0805491E0089598
:1003F00090E00895EF92FF920F931F93CF93DF93B6
:10040000683000F5C62F8C010E94B801F82EE92E45
:1004100028E0C29FC001112480640E944701E801C6
:10042000085F1F4F89910E949101C017D107D1F732
:100430006E2D8F2DDF91CF911F910F91FF90EF9037
:100440000C949D01DF91CF911F910F91FF90EF9040
:100450000895EF92FF920F931F93CF93DF9368302D
:1004600020F5C62F8C010E94B801F82EE92E28E055
:10047000C29FC001112480640E944701E801085F07
:100480001F4FE9910E2E000CFF0B84910E949101E9
:10049000C017D107B1F76E2D8F2DDF91CF911F912E
:1004A0000F91FF90EF900C949D01DF91CF911F91E0
:1004B0000F91FF90EF9008950E94B80108950E9457
:1004C000B801892F08950C949101CF93DF93EC012B
:1004D0008991882319F00E949101FACFDF91CF9181
:1004E0000895CF93DF93FC018491EF012196882337
:1004F00029F00E949101FE018491F8CFDF91CF9104
:100500000895CF93DF93CDB7DEB72C970FB6F8944D
:10051000DEBF0FBECDBF611571058105910521F4C8
:1005200080E30E949101D9C061157105810520E821
:10053000920709F4D2C0FE0131962CE0DF011D9232
:100540002A95E9F720E3298397FF09C090958095C4
:10055000709561957F4F8F4F9F4F31E001C030E024
:1005600020E3422F2F5F6130BAEC7B07BAE98B079B
:10057000BBE39B0724F07A5C8A499B43F2CF4A8312
:1005800020E3422F2F5F611551EE750755EF850768
:1005900055E0950724F0715E854F9540F2CF4B836F
:1005A00020E3422F2F5F6038A6E97A07A8E98A077F
:1005B00091052CF06058764988499109F2CF4C8317
:1005C00020E3422F2F5F6034B2E47B07BFE08B074C
:1005D00091052CF0605472448F409109F2CF4D8305
:1005E00020E3422F2F5F603A56E8750751E08507F8
:1005F00091052CF0605A764881409109F2CF4E83E4
:1006000020E3422F2F5F6031A7E27A078105910531
:100610002CF06051774281099109F3CF4F8320E399
:10062000422F2F5F683EB3E07B07810591052CF0D8
:10063000685E734081099109F3CF488720E3422F18
:100640002F5F64367105810591052CF064567109A0
:1006500081099109F4CF498720E3422F2F5F6A3047
:100660007105810591052CF06A5071098109910984
:10067000F4CF4A87DC01CB01B7FF03C080E090E0F4
:10068000DC0160E3680F6B8720E0DF01A20FB11D82
:100690008C91803311F42F5FF8CF332331F0215048
:1006A000DF01A20FB11D8DE28C939AE0921B80E0D6
:1006B00030E0BF01680F711DAB01420F531FDA011B
:1006C0004C91DB014C938F5F981798F7DF01A80FCF
:1006D000B11D1C92CF010E9465022C960FB6F894B2
:1006E000DEBF0FBECDBFDF91CF9108958F929F9255
:1006F000AF92BF92CF92DF92EF92FF926B017C019B
:1007000049015A0120E030E0A9010E94181181112D
:1007100011C080E30E9491018EE20E94910180E36A
:10072000FF90EF90DF90CF90BF90AF909F908F9011
:100730000C94910120E030E040E05FECC701B6018D
:100740000E94051287FD47C020E030E040E05FE4F2
:10075000C701B6010E94181187FF3DC020E030E0BC
:10076000A901C701B6010E94181187FF07C0F7FA57
:10077000F094F7F8F0948DE20E949101C701B60160
:100780000E941D110E9481028EE20E949101C70108
:10079000B6010E9424110E9453119B01AC01C701B4
:1007A000B6010E94AB106B017C01C501B4010E942F
:1007B00053119B01AC01C701B6010E940A120E94AD
:1007C0001D11FF90EF90DF90CF90BF90AF909F9062
:1007D0008F900C948102FF90EF90DF90CF90BF90AC
:1007E000AF909F908F900895ECE7F0E08081806457
:1007F0008083EAE7F0E080818768808308959091A4
:100800007C00907F8F70892B80937C0080917A0090
:10081000806480937A0080917A0086FDFCCF80917D
:1008200078009091790008958F929F92AF92BF9235
:10083000CF92DF92EF92FF920F931F93CF93DF93AC
:10084000EC018B014115510579F1188219821A8248
:100850001B82FB01E40FF51FC12CD12C7601C39440
:10086000A29180ED8A0F8A30F8F4B0E0D097A7010A
:1008700096010E94941088809980AA80BB80DC0138
:10088000CB01880D991DAA1DBB1D88839983AA835E
:10089000BB83AAE0B0E00E9489106B017C010E17B7
:1008A0001F07F1F681E001C080E0DF91CF911F9139
:1008B0000F91FF90EF90DF90CF90BF90AF909F90FF
:1008C0008F900895FB016217730739F4BA01AF01E5
:1008D0000E94771221E0892B09F020E0822F0895F1
:1008E0000F931F93CF93DF938B01BA01E901F801B6
:1008F00020813181AE01820F931F0E948412F80182
:1009000080819181C80FD91FD183C083DF91CF919E
:100910001F910F910895E2E1F3E0168617A2089562
:10092000FC012089318932272327322724513109BC
:1009300086A582958F70880F880FA901481B5109E1
:10094000CA0157FF02C080E090E00895823058F459
:1009500099E1899FF0011124EE5EFC4F8685882382
:1009600011F0CF01089580E090E008952A98962F25
:100970009F71892B8EBD0DB407FEFDCF1EBC0DB43B
:1009800007FEFDCF67FD03C02A9A8EB508951EBCF1
:100990000DB407FEFDCFF8CF2A986F71862B8EBD60
:1009A0000DB407FEFDCF4EBD0DB407FEFDCF2A9A54
:1009B0000895CF93C82FC076809111038C1791F0C2
:1009C00043E06FE180EA0E94CC044C2F50E085E0C8
:1009D000559547958A95E1F76FE180E80E94CC0430
:1009E000C0931103CF910895CF93C82F0E94D904CB
:1009F0006C2F80E0CF910C94B604CF93DF93C82F77
:100A0000D62F0E94D9044D2F6C2F80E4DF91CF9117
:100A10000C94CC04CF93682F84ED0E94FD0461E018
:100A200082ED0E94FD048AEE0E94F40480FDFBCF5B
:100A300061E082ED0E94FD0488ED0E94F404C82F5D
:100A400089ED0E94F4048C2B90E0CF910895CF9310
:100A5000DF93D62FC72F682F84ED0E94FD046D2FE2
:100A600086ED0E94FD046C2F87ED0E94FD048AEE46
:100A70000E94F40480FF04C080E58A95F1F7F7CF67
:100A8000DF91CF910895209A2198299A28988FE391
:100A90009CE90197F1F700C00000289A9FEF23EC32
:100AA00089E0915020408040E1F700C0000084B10F
:100AB0008C6284B924982A9A85B1877D85B980E5AE
:100AC0008CBD8DB581608DBD4FEF60E08FEF0E94D2
:100AD000CC049FEF20E782E0915020408040E1F776
:100AE00000C000001092100310920F0360E088E035
:100AF0000E94FD0460E089E00E94FD0460E08CE05B
:100B00000E94FD0460E08DE00E94FD046FE68AE033
:100B10000E94FD046EE18BE00E94FD0460E784E02A
:100B20000E94FD046EE185E00E94FD0460E086E025
:100B30000E94FD0460E287E00E94FD046DE080EC0D
:100B40000E94FD0462E382EC0E94FD0460E483ECF9
:100B50000E94FD046FE389EC0E94FD0462E186ECD3
:100B60000E94FD046CE087EC0E94FD0464E98AECBD
:100B70000E94FD0461E08BEC0E94FD0464E784EEBA
:100B80000E94FD0469E685EE0E94FD0465E482EEA4
:100B90000E94FD046DE283EE0E94FD0460E380EE9E
:100BA0000E94FD0461E381EE0E94FD0460E071E0BB
:100BB00080E10E94270562E774E084E10E94270536
:100BC00060EB88E30E94FD046FE388E20E94FD046D
:100BD00060E389E20E94FD0469EF80E30E94FD0466
:100BE00067EF81E30E94FD0462E184EC0E94FD0452
:100BF0008FE10E94D90440EC6BE180E80E94CC04B4
:100C000044E06FE180E80E94CC049FEF29EF80E090
:100C1000915020408040E1F700C00000089582E735
:100C20000C94F404EF92FF920F931F93CF93DF93F2
:100C30007C01EB0160E782E00E94FD046EE183E04D
:100C40000E94FD048E010059114E602F86E00E9423
:100C5000FD04612F87E00E94FD0440E060E08AE728
:100C60000E94CC042A988AE78EBD0DB407FEFDCF02
:100C7000F701CE0DDF1DEC17FD0731F081918EBD20
:100C80000DB407FEFDCFF7CF2A9A48E06FE180E868
:100C90000E94CC048CE10E94F40481FF0BC048E068
:100CA0006FE180EADF91CF911F910F91FF90EF905C
:100CB0000C94CC04DF91CF911F910F91FF90EF9096
:100CC0000895CF92DF92EF92FF920F931F93CF93ED
:100CD000DF9300D000D0CDB7DEB76C018B0189E384
:100CE0000E94F404882309F46DC060910F03F09012
:100CF000100380E00E94FD046F2D81E00E94FD043E
:100D000060E08AE30E94B60480930F0360E08AE308
:100D10000E94B6048093100360E08AE30E94B60448
:100D2000898360E08AE30E94B6048A83E980FA80BE
:100D300084E0E81AF108FA82E98260E08AE30E941E
:100D4000B6048B8360E08AE30E94B6048C83B8010A
:100D5000615071096E157F0510F47A8369838B8168
:100D600087FD03C01A8219821AC089819A819C83E7
:100D70008B832A988AE38EBD0DB407FEFDCFF60162
:100D80008B819C81009751F001979C838B831EBCC3
:100D90000DB407FEFDCF8EB58193F2CF2A9A6091F4
:100DA0000F03109110038CE00E94FD04612F8DE071
:100DB0000E94FD0440E46EE180E80E94CC04898139
:100DC0009A8102C080E090E00F900F900F900F90FA
:100DD000DF91CF911F910F91FF90EF90DF90CF9017
:100DE0000895CF93DF9300D0CDB7DEB726E0FA01A8
:100DF000DC0101900D922A95E1F726E0ECE0F1E0AC
:100E0000DC01169601900D922A95E1F77A836983A9
:100E10002A81FC012487298125870F900F90DF917B
:100E2000CF910895CF92DF92EF92FF92CF93DF930D
:100E3000FB01EC01E230F10558F0A991B991BA2714
:100E4000AB27BA272A0F3B1F411D511D3297F2CF06
:100E5000FB01EE7FDC01AE0FBF1F6E177F0741F075
:100E60008C9190E0982F8827280F391F411D511D24
:100E70006A01EE24FF24C114D104E104F10459F005
:100E8000DA01C901AA27BB27A7019601280F391F3C
:100E90004A1F5B1FEDCFC90180959095DF91CF91DF
:100EA000FF90EF90DF90CF900895CF93DF93EC0108
:100EB0000E9490042EA522952F70220F220F820FE0
:100EC000911D9C012A5F3F4F40E050E0BC01685FEC
:100ED0007F4FCE014A96DF91CF910C941207EF928B
:100EE000FF920F931F93CF93DF9300D0CDB7DEB760
:100EF0008C01FC0182A98A8383A98983E980FA8015
:100F000012AA13AAC8010E945507FA82E9822A810F
:100F1000F80122AB298123AB21E08E159F0509F052
:100F200020E0822F0F900F90DF91CF911F910F91B2
:100F3000FF90EF900895FC018485871306C091E02F
:100F40008585861390E0892F089580E00895E8ED67
:100F5000F2E01286158A10A213A616AA0895CF935E
:100F6000DF9300D0CDB7DEB7FC017A836983848537
:100F70008830B1F48585863099F494898A819813F4
:100F80000FC09589898198130BC0CF0144E050E0D0
:100F900068E071E086960E94771221E0892B09F0C3
:100FA00020E0822F0F900F90DF91CF9108950F9343
:100FB0001F93CF93DF93EC018B01AB0166E078E0E8
:100FC0000E94F1061C8A82E08D8BAE01445E5F4F69
:100FD000B801CE010E94D4006AE270E0CE01DF9138
:100FE000CF911F910F910C9412060F931F93CF93E3
:100FF000DF9300D000D0CDB7DEB78C0185E4F801D7
:10100000868717867A8369838A81808B8981818B21
:101010008091020190910301928B838B01969093B2
:10102000030180930201148A158A80E8868B478B1E
:10103000D8015E9684E0F90101900D928A95E1F75E
:101040008091080190910901A0910A01B0910B01D2
:10105000F801828F938FA48FB58F108E118E20E0B0
:1010600030E0A90164E170E0C8010E960E94120709
:101070009C838B838C81F801808F8B81818F0F9073
:101080000F900F900F90DF91CF911F910F910895C6
:101090007F928F929F92AF92BF92CF92DF92EF9208
:1010A000FF920F931F93CF93DF93CDB7DEB72E97A9
:1010B0000FB6F894DEBF0FBECDBF6C015B01122FDF
:1010C000732E4A01AB014D5E5F4F60E078E00E94F5
:1010D000F10601FF0FC082E0F60186AB84E087AB2A
:1010E00081E080AF8AE581AF80E686A7F4E0EF0E6D
:1010F000F11C03C080E5F60186A79501215F3F4FF3
:10110000B701685D7F4F46E0C6010E94F507F50113
:1011100084813581268197811D837E828F82988686
:1011200089833A832B839C83F60111A770A687A23B
:1011300096A285A734A723A78C8182A7F501808575
:101140009185228533853C872B879A8789878C8573
:10115000F60184A38B8585A38A8582A3898583A3D1
:1011600007A781E080AB8EE681AB14AA15AA12AA6C
:1011700013AAC6010E9455079E878D878E85F601AA
:1011800082AB8D8583ABB7016A5C7F4FC6012E961B
:101190000FB6F894DEBF0FBECDBFDF91CF911F9188
:1011A0000F91FF90EF90DF90CF90BF90AF909F9006
:1011B0008F907F900C941206CF92DF92EF92FF9265
:1011C0000F931F93CF93FB01C480D580E680F780F7
:1011D000C1E0C216D306E406F50609F0C0E0C21667
:1011E000D306E406F50651F4B701A601400F511FDE
:1011F000611D711D4483558366837783208131810E
:1012000042815381E12CF12C00E1BF010E9448088A
:101210008C2FCF911F910F91FF90EF90DF90CF9087
:101220000895FC012485283079F4258521110CC00E
:10123000BC01625E7F4F44E050E088E091E00E9494
:10124000771221E0892B09F020E0822F08950E9477
:1012500043050E94A7070C948B0488E491E008954D
:101260000F931F93CF93DF9300D000D000D0CDB762
:10127000DEB78C0186E0EEE4F1E0DE01119601902C
:101280000D928A95E1F761E070E088E491E00E94B8
:10129000AF07882341F0BE016F5F7F4F88E491E084
:1012A0000E94D7070FC088E491E00E9411098823AB
:1012B00049F080915F01863029F4B80188E491E01B
:1012C0000E940A0C26960FB6F894DEBF0FBECDBF63
:1012D000DF91CF911F910F9108958F929F92AF92BE
:1012E000BF92CF92DF92EF92FF921F93CF93DF9343
:1012F0006C014B015A01E12CF12C10E08FE891E0D8
:101300000197F1F700C0000060E971E0C6010E949A
:101310006106EC01892B91F0B401C6010E949B0784
:10132000882349F046E050E06CE071E0C6010E947D
:101330007712892B81F0CE010E9430091F5F1A308D
:1013400021F49FEFE91AF90A10E0AE14BF04B0F6D9
:1013500080E090E001C0CE01DF91CF911F91FF901E
:10136000EF90DF90CF90BF90AF909F908F900895B7
:101370003F924F925F926F927F928F929F92AF9225
:10138000BF92CF92DF92EF92FF920F931F93CF9372
:10139000DF93CDB7DEB728970FB6F894DEBF0FBE48
:1013A000CDBF7C016B0149015A01302E40E050E075
:1013B00060E078E00E946D098C01892B09F496C0E9
:1013C000C7010E941109882309F48DC0D7015796DF
:1013D0008C91863009F087C0C7010E946F0788236F
:1013E00009F484C0F70186A18C8387A18B8380A533
:1013F0008A8381A5898329813A814B815C812D83F0
:101400003E834F83588782A58C8383A58B8384A5D5
:101410008A8385A5898349805A806B807C8082A1DC
:101420008A8383A1898329813A8184A18A8385A1C2
:10143000898349815A81B601C7010E94A00088238F
:1014400009F44CC0D7019F968C9190E080959095BF
:10145000232D30E082239323892B09F03FC0F6012E
:1014600084819581A681B7812D813E814F815885E8
:1014700082179307A407B50719F031FC2AC02EC0C4
:1014800084149504A604B70449F531FE09C08D8182
:101490009E81AF81B885F60184839583A683B78347
:1014A000C7010E949004892B29F4D7019F968C9143
:1014B00080FF1EC0F60180819181A281B3818816D0
:1014C0009906AA06BB06A1F4B801C7010E940A0C3E
:1014D0000FC084149504A604B704C9F2B801C7016B
:1014E0000E940A0C03C0C8010E94300980E001C0BC
:1014F00081E028960FB6F894DEBF0FBECDBFDF9116
:10150000CF911F910F91FF90EF90DF90CF90BF9000
:10151000AF909F908F907F906F905F904F903F9093
:1015200008952F923F924F925F926F927F928F9287
:101530009F92AF92BF92CF92DF92EF92FF920F9362
:10154000CF93DF93CDB7DEB72C970FB6F894DEBFFD
:101550000FBECDBF823010F080E07BC02115310579
:10156000D9F33C832B835A87498778876F8349E176
:10157000849F900111242E5E3C4F3C872B87C12C09
:10158000D12C1A8219828B819C818C199D09EB8543
:10159000FC85248435848215930508F41C01EB85B1
:1015A000FC8580809180A280B38024013501420CAB
:1015B000531C611C711C408251826282738221E043
:1015C00049855A854C0D5D1D5E834D83EB85FC85F9
:1015D0008685833009F689819A8168EC70E00E94E3
:1015E0006110892B11F0222389F0A1016D817E8188
:1015F0008EE791E00E948412710100E1A50194013F
:101600006B857C8588E491E00E94480800E1A30195
:1016100092016B857C8588E491E00E94B809811174
:101620000FC029813A812F5F3F4F3A83298320E001
:101630004F81588589819A814817590738F68CCF90
:10164000C20CD31CEB81FC81CE16DF0608F49BCFC5
:1016500081E02C960FB6F894DEBF0FBECDBFDF91B0
:10166000CF910F91FF90EF90DF90CF90BF90AF9010
:101670009F908F907F906F905F904F903F902F90B2
:1016800008958F929F92AF92BF92CF92DF92EF9286
:10169000FF920F931F93CF93DF93823010F080E07F
:1016A00043C069017A015B0199E1899FE00111243E
:1016B000CE5EDC4F812C912C8E85833081F7288182
:1016C00039814A815B8100E1BE0188E491E00E949A
:1016D000B8098823F9F08091760182958F70880F80
:1016E000880F90E086599E4FF7019183808388E4AC
:1016F00091E00E949004F601918380832C813D81CA
:101700004E815F818C01BE0188E491E00E94DC087B
:1017100081E00AC0A114B10479F2FFEF8F1A9F0A89
:10172000A814B90448F6BBCFDF91CF911F910F9158
:10173000FF90EF90DF90CF90BF90AF909F908F90F1
:1017400008952F923F924F925F926F927F928F9265
:101750009F92AF92BF92CF92DF92EF92FF920F9340
:10176000CF93DF9300D000D0CDB7DEB71C017C83D0
:101770006B835A834983FB0180809180A280B38070
:1017800024013501FFEF4F1A5F0A6F0A7F0AFB0140
:101790004082518262827382C12CD12CC6016CE2DC
:1017A00071E00E946110892B51F4E12CF12C01E1D0
:1017B000A50194016B817C81C1010E94480800E170
:1017C000A30192016B817C81C1010E94B809811142
:1017D00008C0FFEFCF1ADF0A89819A818C159D0519
:1017E000E8F6EB81FC8116860F900F900F900F901A
:1017F000DF91CF910F91FF90EF90DF90CF90BF904E
:10180000AF909F908F907F906F905F904F903F90A0
:101810002F9008956F927F928F929F92AF92BF9276
:10182000CF92DF92EF92FF920F931F93CF93DF93AC
:1018300000D000D0CDB7DEB76C010E946F078823BF
:1018400009F463C1D60194968C9194978A839596F6
:101850008C919597898369807A8092968C919297E2
:101860008A8393968C91898389809A809401A301BD
:1018700062E173E0C6010E94A00081118BC0940157
:10188000A3016BE273E0C6010E94A000811184C035
:10189000F60187A5823009F038C1F0902003FF20BF
:1018A00031F080913903811130C1FF24F3940F2D61
:1018B00010E029E1F29EC0011124BC016E5E7C4F54
:1018C0005B0121E0DB011E962C931E9719967C92FA
:1018D0006E9218971B969C928E921A97DC01AB5DC4
:1018E000BC4F26E0F601369601900D922A95E1F75D
:1018F000DC01AF5DBC4F84E0F6017A9601900D9259
:101900008A95E1F7F60186A18C8387A18B8380A558
:101910008A8381A5898389819A81AB81BC81019663
:10192000A11DB11DFB0184839583A683B78382E04B
:1019300090E0A0E0B0E080839183A283B383C601EE
:101940000E940901009761F00296F601E80FF91F65
:1019500080818A838181898389819A81009719F4A2
:101960008AE591E004C08B35F1E09F0758F429E146
:10197000209FF001219FF00D1124EE5EFC4F958712
:1019800084870CC08AE591E0D5011D969C938E93C7
:101990001C9704C0F12C02C0FF24F394D6019F963B
:1019A0008C91AF2CB12C823019F599E19A9DF00100
:1019B0009B9DF00D1124EE5EFC4F96852FEF290FB5
:1019C0002230B0F4913011F416869FC086872081B2
:1019D000318142815381B9E1FB9EB00111246E5ED9
:1019E0007C4FE12CF12C02E1C6010E9448088DC019
:1019F00084FF25C089E18A9DF0018B9DF00D1124A3
:101A0000EE5EFC4F86858230D1F483E08687D60176
:101A10009A968C919A978C839B968C919B978B83AB
:101A20009C968C919C978A839D968C9189838981C1
:101A30009A81AB81BC8180839183A283B383F601B9
:101A400087A580FF3BC029E12A9DC0012B9D900DF9
:101A500011249C012E5E3C4F4901D9011E968C91A8
:101A60008350823058F586A18C8387A18B8380A513
:101A70008A8381A5898329813A814B815C81B9E17F
:101A8000FB9EC0011124FC01EE5EFC4F3F0101E012
:101A900010E0BF01C6010E94DC088823B1F1D40127
:101AA0001E968C911E97833081F584E01E968C9350
:101AB00048EE53E0B301C6010E94A10B89E18A9D63
:101AC000F0018B9DF00D1124EE5EFC4F8685833076
:101AD000E1F4C6010E9490040097B9F0F60126A136
:101AE0002C8327A12B8320A52A8321A52983298143
:101AF0003A814B815C81F9E1FF9EB00111246E5E59
:101B00007C4F8C01C6010E94DC080F900F900F9053
:101B10000F90DF91CF911F910F91FF90EF90DF9089
:101B2000CF90BF90AF909F908F907F906F900895CF
:101B3000823098F499E1899FF0011124EE5EFC4F08
:101B40009685933051F4AB0194E09687BF0188E409
:101B500091E00E94A10B81E0089580E008954F92EA
:101B60005F926F927F928F929F92AF92BF92CF922D
:101B7000DF92EF92FF920F931F93CF93DF9300D0EA
:101B800000D000D0CDB7DEB75C017B016A0188EDE3
:101B9000682E82E0782E10E0412C00E09BE0592E68
:101BA00088248A94912C411024C0F30182858823D3
:101BB00001F144E050E0B701C30106960E9477129C
:101BC000892BB9F486E0F301D60101900D928A9534
:101BD000E1F7F30182859401281B31092230310598
:101BE00014F08E5F01C08FEFF30182874424439489
:101BF00011C0F3018285882311F081508287519EA4
:101C0000F0011124E852FD4F9285F3018285981767
:101C100008F4102F0F5FFBE06F0E711C053019F6F2
:101C200041105AC08FEF89838A838B838C838D8385
:101C30008E83AE014F5F5F4F66E078E0C5010E9482
:101C4000F10619821A821B821C821D821E82F501F6
:101C5000148A81E0858BA701BE016F5F7F4FC501AC
:101C60000E94D4006AE270E0C5010E94120644E6B8
:101C700050E066E078E0C5010E946D094C01892BB7
:101C800089F162E070E0C5010E94AF07082F882348
:101C900029F1F501369686E0D60101900D928A95DC
:101CA000E1F7FBE01F9FC001112488529D4F26E001
:101CB000F601DC0101900D922A95E1F7DC01169600
:101CC00024E0F70101900D922A95E1F7FC012285AD
:101CD000211102C022E0228701E005C0C4010E9458
:101CE000300901C000E0802F26960FB6F894DEBFC1
:101CF0000FBECDBFDF91CF911F910F91FF90EF905D
:101D0000DF90CF90BF90AF909F908F907F906F901B
:101D10005F904F9008952F923F924F925F926F92F3
:101D20007F928F929F92BF92CF92DF92EF92FF921B
:101D30000F931F93CF93DF9300D000D000D0CDB787
:101D4000DEB7B0902003BB2031F020913903211180
:101D500082C0BB24B394B9E1BB9E90011124F90168
:101D6000EE5EFC4F6F01DF011F9624E0FC01019045
:101D70000D922A95E1F72091000130910101D601E1
:101D800019963C932E9318971B967C936E931A97F3
:101D900062E0462E512C612C712CF601408251825A
:101DA0006282738214961D921D921D921C92179747
:101DB00061E01E966C932F3FBFEF3B0709F483C091
:101DC0002F5F3F4F1A01BC013093010120930001A6
:101DD000A6014D5E5F4F88E491E00E94AF0D88231D
:101DE000B9F1F6014080518062807380D301C20155
:101DF0000196A11DB11D8B839C83AD83BE8380831F
:101E00009183A283B383812C912CC4016CE271E095
:101E10000E946110892B51F4E12CF12C02E0A30106
:101E20009201B60188E491E00E94480802E12B810A
:101E30003C814D815E81B60188E491E00E94B80941
:101E400081110CC0FFEF8F1A9F0A28143904E8F69D
:101E5000D6011E961C92BB24BA9438C088E491E047
:101E60000E940901009759F0FC01E65BFE4F80815A
:101E70008A838181898389819A81009719F48AE50F
:101E800091E004C08B35F1E09F0730F4D6011D9638
:101E90009C938E931C9705C08AE591E0F601958787
:101EA0008487D60114962D913D914D915C911797A1
:101EB00001E010E0B60188E491E00E94DC0883E0D4
:101EC000F601868703C020E030EC7CCF8B2D269670
:101ED0000FB6F894DEBF0FBECDBFDF91CF911F913B
:101EE0000F91FF90EF90DF90CF90BF909F908F90D9
:101EF0007F906F905F904F903F902F90089560E992
:101F000071E088E491E00E946106009711F00C9462
:101F10003009089581E00895089508950895DF92A5
:101F2000EF92FF920F931F93CF93DF93CDB7DEB75E
:101F300029970FB6F894DEBF0FBECDBF8091040184
:101F400090910501A0910601B09107018E839F83B6
:101F5000A887B98740E757E168E873E1CE010696A4
:101F60000E948B0EF82E8FEFF81203C082E191E0F1
:101F700076C085E00E94FF03BC0180E090E00E94F3
:101F800053119B01AC0160E070E080E894E40E9492
:101F9000AB1020E030E040EA50E40E940A1220E05A
:101FA00030E040E85AE30E940A1220E030E048ECBA
:101FB00052E40E940A120E941D11E62ED72E862F8F
:101FC0009D2D8C010E949A0180E80E94470184E2C5
:101FD00091E00E946502C80164E670E00E947510FD
:101FE0008C01072E000C880B990B0E9481028EE257
:101FF00091E00E946502B801110F880B990B0E94B5
:10200000810280E391E00E946502DF92EF9282E319
:1020100091E09F938F938E010F5F1F4F1F930F933C
:102020000E94F912F80101900020E9F731979F0111
:10203000201B310BA80168E873E18F2D0E94910AE3
:102040000F900F900F900F900F900F9081110AC07A
:1020500068EE73E08F2D0E94980D85E391E00E9459
:10206000C9120DC068E873E18F2D0E94980D609130
:102070004603709147038AE090E00E948D122996F2
:102080000FB6F894DEBF0FBECDBFDF91CF911F9189
:102090000F91FF90EF90DF9008950E9450010E94F1
:1020A000F4030E9427090E947F0F0E948F0F2FEFD9
:1020B00083ED90E3215080409040E1F700C00000A4
:1020C000F2CFAA1BBB1B51E107C0AA1FBB1FA6175B
:1020D000B70710F0A61BB70B881F991F5A95A9F7D1
:1020E00080959095BC01CD01089597FB072E16F4BD
:1020F000009407D077FD09D00E94611007FC05D03D
:102100003EF4909581959F4F0895709561957F4F0E
:1021100008950E949C10A59F900DB49F900DA49FC0
:10212000800D911D11240895B7FF0C9489100E9411
:102130008910821B930B0895A29FB001B39FC00129
:10214000A39F700D811D1124911DB29F700D811DE3
:102150001124911D08955058BB27AA270E94C3102F
:102160000C94CB110E94BD1138F00E94C41120F0D4
:1021700039F49F3F19F426F40C94BA110EF4E0954B
:10218000E7FB0C94B411E92F0E94DC1158F3BA1745
:10219000620773078407950720F079F4A6F50C947D
:1021A000FE110EF4E0950B2EBA2FA02D0B01B901F4
:1021B00090010C01CA01A0011124FF27591B99F0BD
:1021C000593F50F4503E68F11A16F040A22F232FC9
:1021D000342F4427585FF3CF469537952795A79519
:1021E000F0405395C9F77EF41F16BA0B620B730BC0
:1021F000840BBAF09150A1F0FF0FBB1F661F771F31
:10220000881FC2F70EC0BA0F621F731F841F48F4E5
:10221000879577956795B795F7959E3F08F0B0CF6E
:102220009395880F08F09927EE0F97958795089555
:102230000E94901108F481E008950E94241168948E
:10224000B1110C94FF1108950E94E41188F09F577A
:1022500098F0B92F9927B751B0F0E1F0660F771FCA
:10226000881F991F1AF0BA95C9F714C0B13091F0C0
:102270000E94FE11B1E008950C94FE11672F782F93
:102280008827B85F39F0B93FCCF386957795679585
:10229000B395D9F73EF490958095709561957F4FF1
:1022A0008F4F9F4F0895E89409C097FB3EF4909597
:1022B0008095709561957F4F8F4F9F4F9923A9F01F
:1022C000F92F96E9BB279395F695879577956795AE
:1022D000B795F111F8CFFAF4BB0F11F460FF1BC0F2
:1022E0006F5F7F4F8F4F9F4F16C0882311F096E985
:1022F00011C0772321F09EE8872F762F05C0662333
:1023000071F096E8862F70E060E02AF09A95660FEB
:10231000771F881FDAF7880F9695879597F90895A4
:10232000990F0008550FAA0BE0E8FEEF16161706E6
:10233000E807F907C0F012161306E407F50798F04E
:10234000621B730B840B950B39F40A2661F0232B67
:10235000242B252B21F408950A2609F4A140A695E3
:102360008FEF811D811D089597F99F6780E870E0C8
:1023700060E008959FEF80EC089500240A941616FB
:10238000170618060906089500240A941216130663
:10239000140605060895092E0394000C11F48823F1
:1023A00052F0BB0F40F4BF2B11F460FF04C06F5F0D
:1023B0007F4F8F4F9F4F089557FD9058440F551FE3
:1023C00059F05F3F71F04795880F97FB991F61F0B7
:1023D0009F3F79F087950895121613061406551F2E
:1023E000F2CF4695F1DF08C0161617061806991F9A
:1023F000F1CF86957105610508940895E894BB278F
:1024000066277727CB0197F908950E94901108F469
:102410008FEF08950E941D120C94CB110E94BD11E4
:1024200038F00E94C41120F0952311F00C94B411DF
:102430000C94BA1111240C94FF110E94DC1170F35A
:10244000959FC1F3950F50E0551F629FF001729F59
:10245000BB27F00DB11D639FAA27F00DB11DAA1F68
:10246000649F6627B00DA11D661F829F2227B00DB5
:10247000A11D621F739FB00DA11D621F839FA00D40
:10248000611D221F749F3327A00D611D231F849F90
:10249000600D211D822F762F6A2F11249F575040E7
:1024A0009AF0F1F088234AF0EE0FFF1FBB1F661F62
:1024B000771F881F91505040A9F79E3F510580F02B
:1024C0000C94B4110C94FF115F3FE4F3983ED4F3E5
:1024D000869577956795B795F795E7959F5FC1F7CF
:1024E000FE2B880F911D9695879597F90895FB010E
:1024F000DC0104C08D910190801921F441505040BD
:10250000C8F7881B990B0895FB01DC0102C00190FC
:102510000D9241505040D8F708950F931F93CF93D9
:10252000DF93FB01238121FD03C08FEF9FEF2CC0C0
:1025300022FF16C0468157812481358142175307F7
:1025400044F4A081B1819D012F5F3F4F31832083EF
:102550008C93268137812F5F3F4F3783268314C0AA
:102560008B01EC01FB010084F185E02D0995892B9D
:10257000E1F6D80116968D919C91179701961796C2
:102580009C938E931697CE01DF91CF911F910F915F
:1025900008950F931F93CF93DF93E0914603F0913B
:1025A0004703238121FF1BC08C01D0E0C0E0F8016C
:1025B00081918F016091460370914703DB0118966A
:1025C000ED91FC911997882331F00995892B79F3C6
:1025D000DFEFCFEFECCF8AE00995892B19F08FEF71
:1025E0009FEF02C08D2F9C2FDF91CF911F910F91F4
:1025F0000895AEE0B0E0EFEFF2E10C947E150D89A6
:102600001E8986E08C831A8309838FEF9FE79E8360
:102610008D83AE01475E5F4F6F89788DCE01019645
:102620000E941B13EF81F885E00FF11F10822E9698
:10263000E4E00C949A15ABE0B0E0E1E2F3E10C9435
:1026400070156C017B018A01FC011782168283815F
:1026500081FFCCC1CE0101963C01F6019381F701C7
:1026600093FD859193FF81917F01882309F4BAC17D
:10267000853239F493FD859193FF81917F018532F5
:1026800029F4B60190E00E948D12E7CF912C212C05
:10269000312CFFE1F315D8F08B3279F038F4803229
:1026A00079F08332A1F4232D20611DC08D3261F0B9
:1026B000803369F4232D216016C0832D8260382E6B
:1026C000E32DE4603E2E2AC0F32DF8601DC037FCD8
:1026D0002DC020ED280F2A3040F08E32B9F436FCA0
:1026E00081C1232D2064322E19C036FE06C08AE037
:1026F000989E200D1124922E11C0EAE02E9E200DEE
:102700001124222EF32DF0623F2E08C08C3621F4C6
:10271000832D8068382E02C0883641F4F70193FD7E
:10272000859193FF81917F018111B3CF982F9F7D78
:102730009554933028F40C5F1F4F9FE399830DC08D
:10274000833631F0833771F0833509F059C021C0E9
:10275000F801808189830E5F1F4F88248394912C18
:10276000530113C02801F2E04F0E511CF801A08064
:10277000B18036FE03C0692D70E002C06FEF7FEFBD
:10278000C5010E9407154C018201F32DFF773F2EF2
:1027900016C0280122E0420E511CF801A080B18031
:1027A00036FE03C0692D70E002C06FEF7FEFC501F8
:1027B0000E94FC144C01F32DF0683F2E820133FC83
:1027C0001BC0822D90E088169906B0F4B60180E215
:1027D00090E00E948D122A94F4CFF50137FC859188
:1027E00037FE81915F01B60190E00E948D122110A9
:1027F0002A9421E0821A91088114910471F7E8C0AB
:10280000843611F0893641F5F80137FE07C0608142
:102810007181828193810C5F1F4F08C0608171813B
:10282000072E000C880B990B0E5F1F4FF32DFF76C0
:102830003F2E97FF09C090958095709561957F4FC9
:102840008F4F9F4FF0683F2E2AE030E0A3010E9497
:102850001215882E861845C0853731F4232D2F7E1A
:10286000B22E2AE030E025C0932D997FB92E8F3605
:10287000C1F018F4883579F0B5C0803719F0883781
:1028800021F0B0C0E92FE061BE2EB4FE0DC0FB2DDB
:10289000F460BF2E09C034FE0AC0292F2660B22E74
:1028A00006C028E030E005C020E130E002C020E1B1
:1028B00032E0F801B7FE07C06081718182819381A7
:1028C0000C5F1F4F06C06081718180E090E00E5F59
:1028D0001F4FA3010E941215882E8618FB2DFF772B
:1028E0003F2E36FE0DC0232D2E7FA22E891458F4C4
:1028F00034FE0BC032FC09C0832D8E7EA82E05C08D
:10290000B82CA32C03C0B82C01C0B92CA4FE0FC056
:10291000FE01E80DF11D8081803321F49A2D997E0E
:10292000A92E09C0A2FE06C0B394B39404C08A2D98
:10293000867809F0B394A3FC11C0A0FE06C0B214BF
:1029400088F4280C922C9B180EC0B21460F4B601C7
:1029500080E290E00E948D12B394F7CFB21418F485
:102960002B1802C0982C212CA4FE10C0B60180E3C5
:1029700090E00E948D12A2FE17C0A1FC03C088E760
:1029800090E002C088E590E0B6010CC08A2D867800
:1029900059F0A1FE02C08BE201C080E2A7FC8DE2EB
:1029A000B60190E00E948D12891438F4B60180E3DC
:1029B00090E00E948D129A94F7CF8A94F301E80D6B
:1029C000F11D8081B60190E00E948D128110F5CF3B
:1029D000222009F442CEB60180E290E00E948D12DE
:1029E0002A94F6CFF6018681978102C08FEF9FEF80
:1029F0002B96E2E10C948C15FC010590615070401F
:102A00000110D8F7809590958E0F9F1F0895FC01B7
:102A10006150704001900110D8F7809590958E0F0D
:102A20009F1F0895FA01AA27283051F1203181F122
:102A3000E8946F936E7F6E5F7F4F8F4F9F4FAF4FC6
:102A4000B1E03ED0B4E03CD0670F781F891F9A1FD9
:102A5000A11D680F791F8A1F911DA11D6A0F711D8D
:102A6000811D911DA11D20D009F468943F912AE099
:102A7000269F11243019305D3193DEF6CF01089581
:102A8000462F4770405D4193B3E00FD0C9F7F6CFB2
:102A9000462F4F70405D4A3318F0495D31FD40527A
:102AA000419302D0A9F7EACFB4E0A6959795879510
:102AB00077956795BA95C9F70097610571050895EF
:102AC0009B01AC010A2E069457954795379527959B
:102AD000BA95C9F7620F731F841F951FA01D089533
:102AE0002F923F924F925F926F927F928F929F921E
:102AF000AF92BF92CF92DF92EF92FF920F931F930C
:102B0000CF93DF93CDB7DEB7CA1BDB0B0FB6F894BC
:102B1000DEBF0FBECDBF09942A88398848885F84FC
:102B20006E847D848C849B84AA84B984C884DF806D
:102B3000EE80FD800C811B81AA81B981CE0FD11D51
:102B40000FB6F894DEBF0FBECDBFED010895F89427
:022B5000FFCFB5
:102B520000C00100C0A80181C0A801957469452D7B
:102B6200303154637020636F6E6E656374206572DA
:102B7200726F7200564F4C544147453A20002E0066
:102B8200560025640053656E642072657175657325
:082B920074206572726F72007D
:00000001FF
